{"abi":[{"type":"constructor","inputs":[],"stateMutability":"nonpayable"},{"type":"fallback","stateMutability":"payable"},{"type":"receive","stateMutability":"payable"},{"type":"function","name":"deployDeterministic","inputs":[{"name":"value","type":"uint256","internalType":"uint256"},{"name":"creationCode","type":"bytes","internalType":"bytes"},{"name":"salt","type":"bytes32","internalType":"bytes32"}],"outputs":[{"name":"deployed","type":"address","internalType":"address"}],"stateMutability":"payable"},{"type":"function","name":"eip712Domain","inputs":[],"outputs":[{"name":"fields","type":"bytes1","internalType":"bytes1"},{"name":"name","type":"string","internalType":"string"},{"name":"version","type":"string","internalType":"string"},{"name":"chainId","type":"uint256","internalType":"uint256"},{"name":"verifyingContract","type":"address","internalType":"address"},{"name":"salt","type":"bytes32","internalType":"bytes32"},{"name":"extensions","type":"uint256[]","internalType":"uint256[]"}],"stateMutability":"view"},{"type":"function","name":"entryPoint","inputs":[],"outputs":[{"name":"","type":"address","internalType":"address"}],"stateMutability":"view"},{"type":"function","name":"execute","inputs":[{"name":"target","type":"address","internalType":"address"},{"name":"value","type":"uint256","internalType":"uint256"},{"name":"data","type":"bytes","internalType":"bytes"}],"outputs":[],"stateMutability":"payable"},{"type":"function","name":"initialize","inputs":[{"name":"entryPoint_","type":"address","internalType":"address"}],"outputs":[],"stateMutability":"nonpayable"},{"type":"function","name":"isValidSignature","inputs":[{"name":"hash","type":"bytes32","internalType":"bytes32"},{"name":"signature","type":"bytes","internalType":"bytes"}],"outputs":[{"name":"result","type":"bytes4","internalType":"bytes4"}],"stateMutability":"view"},{"type":"function","name":"onERC1155BatchReceived","inputs":[{"name":"","type":"address","internalType":"address"},{"name":"","type":"address","internalType":"address"},{"name":"","type":"uint256[]","internalType":"uint256[]"},{"name":"","type":"uint256[]","internalType":"uint256[]"},{"name":"","type":"bytes","internalType":"bytes"}],"outputs":[{"name":"","type":"bytes4","internalType":"bytes4"}],"stateMutability":"pure"},{"type":"function","name":"onERC1155Received","inputs":[{"name":"","type":"address","internalType":"address"},{"name":"","type":"address","internalType":"address"},{"name":"","type":"uint256","internalType":"uint256"},{"name":"","type":"uint256","internalType":"uint256"},{"name":"","type":"bytes","internalType":"bytes"}],"outputs":[{"name":"","type":"bytes4","internalType":"bytes4"}],"stateMutability":"pure"},{"type":"function","name":"onERC721Received","inputs":[{"name":"","type":"address","internalType":"address"},{"name":"","type":"address","internalType":"address"},{"name":"","type":"uint256","internalType":"uint256"},{"name":"","type":"bytes","internalType":"bytes"}],"outputs":[{"name":"","type":"bytes4","internalType":"bytes4"}],"stateMutability":"pure"},{"type":"function","name":"supportsInterface","inputs":[{"name":"interfaceId","type":"bytes4","internalType":"bytes4"}],"outputs":[{"name":"","type":"bool","internalType":"bool"}],"stateMutability":"view"},{"type":"function","name":"validateUserOp","inputs":[{"name":"userOp","type":"tuple","internalType":"struct PackedUserOperation","components":[{"name":"sender","type":"address","internalType":"address"},{"name":"nonce","type":"uint256","internalType":"uint256"},{"name":"initCode","type":"bytes","internalType":"bytes"},{"name":"callData","type":"bytes","internalType":"bytes"},{"name":"accountGasLimits","type":"bytes32","internalType":"bytes32"},{"name":"preVerificationGas","type":"uint256","internalType":"uint256"},{"name":"gasFees","type":"bytes32","internalType":"bytes32"},{"name":"paymasterAndData","type":"bytes","internalType":"bytes"},{"name":"signature","type":"bytes","internalType":"bytes"}]},{"name":"userOpHash","type":"bytes32","internalType":"bytes32"},{"name":"missingAccountFunds","type":"uint256","internalType":"uint256"}],"outputs":[{"name":"validationData","type":"uint256","internalType":"uint256"}],"stateMutability":"nonpayable"},{"type":"event","name":"ContractDeployed","inputs":[{"name":"deployed","type":"address","indexed":true,"internalType":"address"}],"anonymous":false},{"type":"event","name":"EIP712DomainChanged","inputs":[],"anonymous":false},{"type":"event","name":"EntryPointSet","inputs":[{"name":"entryPoint","type":"address","indexed":true,"internalType":"address"}],"anonymous":false},{"type":"event","name":"Initialized","inputs":[{"name":"version","type":"uint64","indexed":false,"internalType":"uint64"}],"anonymous":false},{"type":"error","name":"EmptyBytecode","inputs":[]},{"type":"error","name":"InvalidInitialization","inputs":[]},{"type":"error","name":"InvalidShortString","inputs":[]},{"type":"error","name":"NotInitializing","inputs":[]},{"type":"error","name":"StringTooLong","inputs":[{"name":"str","type":"string","internalType":"string"}]},{"type":"error","name":"Unauthorized","inputs":[]}],"bytecode":{"object":"0x610160604052348015610010575f5ffd5b50604080518082018252601381527f54536d617274204163636f756e74203737303200000000000000000000000000602080830191909152825180840190935260018352603160f81b9083015290610068825f610119565b61012052610077816001610119565b61014052815160208084019190912060e052815190820120610100524660a05261010360e05161010051604080517f8b73c3c69bb8fe3d512ecc4cf759cc79239f7b179b0ffacaa9a75d522b39400f60208201529081019290925260608201524660808201523060a08201525f9060c00160405160208183030381529060405280519060200120905090565b60805250503060c05261011461014b565b61040f565b5f6020835110156101345761012d836101e8565b9050610145565b8161013f84826102f9565b5060ff90505b92915050565b5f61015461022e565b805490915068010000000000000000900460ff16156101865760405163f92ee8a960e01b815260040160405180910390fd5b80546001600160401b03908116146101e55780546001600160401b0319166001600160401b0390811782556040519081527fc7f505b2f371ae2175ee4913f4499e1f2633a7b5936321eed1cdaeb6115181d29060200160405180910390a15b50565b5f5f829050601f8151111561021b578260405163305a27a960e01b815260040161021291906103b7565b60405180910390fd5b8051610226826103ec565b179392505050565b5f807ff0c57e16840df040f15088dc2f81fe391c3923bec73e23a9662efc9c229c6a00610145565b634e487b7160e01b5f52604160045260245ffd5b600181811c9082168061027e57607f821691505b60208210810361029c57634e487b7160e01b5f52602260045260245ffd5b50919050565b601f8211156102f457828211156102f457805f5260205f20601f840160051c60208510156102cd57505f5b90810190601f840160051c035f5b818110156102f0575f838201556001016102db565b5050505b505050565b81516001600160401b0381111561031257610312610256565b61032681610320845461026a565b846102a2565b6020601f821160018114610358575f83156103415750848201515b5f19600385901b1c1916600184901b1784556103b0565b5f84815260208120601f198516915b828110156103875787850151825560209485019460019092019101610367565b50848210156103a457868401515f19600387901b60f8161c191681555b505060018360011b0184555b5050505050565b602081525f82518060208401528060208501604085015e5f604082850101526040601f19601f83011684010191505092915050565b8051602080830151919081101561029c575f1960209190910360031b1b16919050565b60805160a05160c05160e0516101005161012051610140516117126104605f395f61089f01525f61086e01525f610b5f01525f610b3701525f610a9201525f610abc01525f610ae601526117125ff3fe608060405260043610610098575f3560e01c8063ab711ed911610060578063ab711ed914610185578063b0d691fe146101b0578063b61d27f6146101c4578063bc197c81146101d7578063c4d66de814610205578063f23a6e611461022457005b806301ffc9a71461009a578063150b7a02146100ce5780631626ba7e1461011257806319822f7c1461013157806384b0196e1461015e575b005b3480156100a5575f5ffd5b506100b96100b436600461103e565b610250565b60405190151581526020015b60405180910390f35b3480156100d9575f5ffd5b506100f96100e83660046110c4565b630a85bd0160e11b95945050505050565b6040516001600160e01b031990911681526020016100c5565b34801561011d575f5ffd5b506100f961012c36600461112d565b6102f2565b34801561013c575f5ffd5b5061015061014b366004611174565b610372565b6040519081526020016100c5565b348015610169575f5ffd5b506101726103e7565b6040516100c597969594939291906111f0565b610198610193366004611286565b610429565b6040516001600160a01b0390911681526020016100c5565b3480156101bb575f5ffd5b506101986104e8565b6100986101d23660046112d4565b610516565b3480156101e2575f5ffd5b506100f96101f1366004611369565b63bc197c8160e01b98975050505050505050565b348015610210575f5ffd5b5061009861021f366004611425565b61056e565b34801561022f575f5ffd5b506100f961023e36600461143e565b63f23a6e6160e01b9695505050505050565b5f6001600160e01b031982166306608bdf60e21b148061028057506001600160e01b03198216630b135d3f60e11b145b8061029b57506001600160e01b03198216637739000160e01b145b806102b657506001600160e01b03198216630a85bd0160e11b145b806102d157506001600160e01b03198216630271189760e51b145b806102ec57506001600160e01b031982166301ffc9a760e01b145b92915050565b5f6102fe8484846106e0565b8061030f575061030f8484846107cc565b61035f577f773977397739773977397739773977397739773977397739773977397739773984148015610340575081155b610352576001600160e01b0319610368565b637739000160e01b610368565b630b135d3f60e11b5b90505b9392505050565b5f61037b6104e8565b6001600160a01b0316336001600160a01b0316146103ab576040516282b42960e81b815260040160405180910390fd5b81156103bb575f5f5f5f85335af1505b6103d2836103cd6101008701876114b0565b6107ed565b6103de5750600161036b565b505f9392505050565b5f6060805f5f5f60606103f8610867565b610400610898565b604080515f80825260208201909252600f60f81b9b939a50919850469750309650945092509050565b5f6104326104e8565b6001600160a01b0316336001600160a01b0316141580156104535750333014155b15610470576040516282b42960e81b815260040160405180910390fd5b5f839003610491576040516321744a5960e01b815260040160405180910390fd5b6040518385823782848288f59150816104ac573d5f823e3d81fd5b506040516001600160a01b038216907f8ffcdc15a283d706d38281f500270d8b5a656918f555de0913d7455e3e6bc1bf905f90a2949350505050565b7f38a124a88e3a590426742b6544792c2b2bc21792f86c1fa1375b57726d827a00546001600160a01b031690565b61051e6104e8565b6001600160a01b0316336001600160a01b03161415801561053f5750333014155b1561055c576040516282b42960e81b815260040160405180910390fd5b610568848484846108c5565b50505050565b5f6105776108e1565b805490915060ff600160401b82041615906001600160401b03165f8115801561059d5750825b90505f826001600160401b031660011480156105b85750303b155b9050811580156105c6575080155b156105e45760405163f92ee8a960e01b815260040160405180910390fd5b845467ffffffffffffffff19166001178555831561060e57845460ff60401b1916600160401b1785555b33301461062d576040516282b42960e81b815260040160405180910390fd5b7f38a124a88e3a590426742b6544792c2b2bc21792f86c1fa1375b57726d827a0080546001600160a01b0319166001600160a01b0388169081179091556040517f41e2b4fb9d855f284604e7592c9eeb72789d1f68bcc53c34f036de5dbb59dcd8905f90a283156106d857845460ff60401b19168555604051600181527fc7f505b2f371ae2175ee4913f4499e1f2633a7b5936321eed1cdaeb6115181d29060200160405180910390a15b505050505050565b5f365f5f5f365f6106f18989610909565b9550955095509550955095505f5f5f5f5f61070a6103e7565b509550955095509550955050610729888a610a0290919063ffffffff16565b8f14801561073657508515155b80156107b957506107b96107b26107ab89898c8a805190602001208a805190602001208a8a8a604051602001610797959493929190948552602085019390935260408401919091526001600160a01b03166060830152608082015260a00190565b604051602081830303815290604052610a21565b8b90610a02565b8c8c6107ed565b9f9e505050505050505050505050505050565b5f6103686107ea6107dc86610a53565b6107e4610a86565b90610a02565b84845b5f5f5f61082f8686868080601f0160208091040260200160405190810160405280939291908181526020018383808284375f92019190915250610baf92505050565b509092509050306001600160a01b03831614801561085d57505f81600381111561085b5761085b6114f2565b145b9695505050505050565b60606108937f00000000000000000000000000000000000000000000000000000000000000005f610bf8565b905090565b60606108937f00000000000000000000000000000000000000000000000000000000000000006001610bf8565b604051818382375f38838387895af1806106d8573d5f833e3d82fd5b5f807ff0c57e16840df040f15088dc2f81fe391c3923bec73e23a9662efc9c229c6a006102ec565b365f8080838186604281101561093157505f95508594508493508392508291508190506109f8565b60011981015f6109438a83818e611506565b61094c9161152d565b60f01c90506042810183101561097757505f97508796508695508594508493508392506109f8915050565b5f81830390505f6020820390505f6020820390508d8d5f90839261099d93929190611506565b9b509b508d8d829084926109b393929190611506565b6109bc91611565565b99508d8d839085926109d093929190611506565b6109d991611565565b98508d8d849087926109ed93929190611506565b975097505050505050505b9295509295509295565b60405161190160f01b8152600281019290925260228201526042902090565b5f365f365f610a308989610ca2565b9350935093509350610a46848484848b8b610e19565b9998505050505050505050565b7f983e65e5148e570cd828ead231ee759a8d7958721a768f93bc4483ba005c32de5f9081526020829052604081206102ec565b5f306001600160a01b037f000000000000000000000000000000000000000000000000000000000000000016148015610ade57507f000000000000000000000000000000000000000000000000000000000000000046145b15610b0857507f000000000000000000000000000000000000000000000000000000000000000090565b610893604080517f8b73c3c69bb8fe3d512ecc4cf759cc79239f7b179b0ffacaa9a75d522b39400f60208201527f0000000000000000000000000000000000000000000000000000000000000000918101919091527f000000000000000000000000000000000000000000000000000000000000000060608201524660808201523060a08201525f9060c00160405160208183030381529060405280519060200120905090565b5f5f5f8351604103610be6576020840151604085015160608601515f1a610bd888828585610e68565b955095509550505050610bf1565b505081515f91506002905b9250925092565b606060ff8314610c1257610c0b83610f30565b90506102ec565b818054610c1e90611582565b80601f0160208091040260200160405190810160405280929190818152602001828054610c4a90611582565b8015610c955780601f10610c6c57610100808354040283529160200191610c95565b820191905f5260205f20905b815481529060010190602001808311610c7857829003601f168201915b5050505050905092915050565b365f818185858015610e0157602960f81b8282610cc06001826115ce565b818110610ccf57610ccf6115e1565b9050013560f81c60f81b6001600160f81b03191603610d70575f5b81811015610d6a575f838383818110610d0557610d056115e1565b909101356001600160f81b031916915050601b60fb1b8101610d4d57815f03610d2e5750610d6a565b610d3a825f8587611506565b8b8b975097509750975050505050610e10565b610d5681610f6d565b15610d615750610d6a565b50600101610cea565b50610e01565b805b8015610dff575f8383610d866001856115ce565b818110610d9557610d956115e1565b909101356001600160f81b03191691505060d760f81b8101610dda57610dbd83838187611506565b610dc9845f8789611506565b975097509750975050505050610e10565b610de381610f6d565b15610dee5750610dff565b50610df8816115f5565b9050610d72565b505b5f805f80955095509550955050505b92959194509250565b5f8515610e5b57610e2c87878787610fdf565b8383604051602001610e409392919061160a565b60405160208183030381529060405280519060200120610e5d565b5f5b979650505050505050565b5f80807f7fffffffffffffffffffffffffffffff5d576e7357a4501ddfe92f46681b20a0841115610ea157505f91506003905082610f26565b604080515f808252602082018084528a905260ff891692820192909252606081018790526080810186905260019060a0016020604051602081039080840390855afa158015610ef2573d5f5f3e3d5ffd5b5050604051601f1901519150506001600160a01b038116610f1d57505f925060019150829050610f26565b92505f91508190505b9450945094915050565b60605f610f3c83611017565b6040805160208082528183019092529192505f91906020820181803683375050509182525060208101929092525090565b5f6001600160f81b031982161580610f9257506001600160f81b03198216600160fd1b145b80610faa57506001600160f81b03198216600b60fa1b145b80610fc257506001600160f81b03198216600560fb1b145b806102ec57506001600160f81b03198216602960f81b1492915050565b5f84848484604051602001610ff79493929190611631565b604051602081830303815290604052805190602001209050949350505050565b5f60ff8216601f8111156102ec57604051632cd44ac360e21b815260040160405180910390fd5b5f6020828403121561104e575f5ffd5b81356001600160e01b03198116811461036b575f5ffd5b80356001600160a01b038116811461107b575f5ffd5b919050565b5f5f83601f840112611090575f5ffd5b5081356001600160401b038111156110a6575f5ffd5b6020830191508360208285010111156110bd575f5ffd5b9250929050565b5f5f5f5f5f608086880312156110d8575f5ffd5b6110e186611065565b94506110ef60208701611065565b93506040860135925060608601356001600160401b03811115611110575f5ffd5b61111c88828901611080565b969995985093965092949392505050565b5f5f5f6040848603121561113f575f5ffd5b8335925060208401356001600160401b0381111561115b575f5ffd5b61116786828701611080565b9497909650939450505050565b5f5f5f60608486031215611186575f5ffd5b83356001600160401b0381111561119b575f5ffd5b840161012081870312156111ad575f5ffd5b95602085013595506040909401359392505050565b5f81518084528060208401602086015e5f602082860101526020601f19601f83011685010191505092915050565b60ff60f81b8816815260e060208201525f61120e60e08301896111c2565b828103604084015261122081896111c2565b606084018890526001600160a01b038716608085015260a0840186905283810360c0850152845180825260208087019350909101905f5b81811015611275578351835260209384019390920191600101611257565b50909b9a5050505050505050505050565b5f5f5f5f60608587031215611299575f5ffd5b8435935060208501356001600160401b038111156112b5575f5ffd5b6112c187828801611080565b9598909750949560400135949350505050565b5f5f5f5f606085870312156112e7575f5ffd5b6112f085611065565b93506020850135925060408501356001600160401b03811115611311575f5ffd5b61131d87828801611080565b95989497509550505050565b5f5f83601f840112611339575f5ffd5b5081356001600160401b0381111561134f575f5ffd5b6020830191508360208260051b85010111156110bd575f5ffd5b5f5f5f5f5f5f5f5f60a0898b031215611380575f5ffd5b61138989611065565b975061139760208a01611065565b965060408901356001600160401b038111156113b1575f5ffd5b6113bd8b828c01611329565b90975095505060608901356001600160401b038111156113db575f5ffd5b6113e78b828c01611329565b90955093505060808901356001600160401b03811115611405575f5ffd5b6114118b828c01611080565b999c989b5096995094979396929594505050565b5f60208284031215611435575f5ffd5b61036b82611065565b5f5f5f5f5f5f60a08789031215611453575f5ffd5b61145c87611065565b955061146a60208801611065565b9450604087013593506060870135925060808701356001600160401b03811115611492575f5ffd5b61149e89828a01611080565b979a9699509497509295939492505050565b5f5f8335601e198436030181126114c5575f5ffd5b8301803591506001600160401b038211156114de575f5ffd5b6020019150368190038213156110bd575f5ffd5b634e487b7160e01b5f52602160045260245ffd5b5f5f85851115611514575f5ffd5b83861115611520575f5ffd5b5050820193919092039150565b80356001600160f01b0319811690600284101561155e576001600160f01b0319600285900360031b81901b82161691505b5092915050565b803560208310156102ec575f19602084900360031b1b1692915050565b600181811c9082168061159657607f821691505b6020821081036115b457634e487b7160e01b5f52602260045260245ffd5b50919050565b634e487b7160e01b5f52601160045260245ffd5b818103818111156102ec576102ec6115ba565b634e487b7160e01b5f52603260045260245ffd5b5f81611603576116036115ba565b505f190190565b8381528260208201525f82518060208501604085015e5f9201604001918252509392505050565b6d0a8f2e0cac888c2e8c2a6d2cedc560931b81528385600e8301375f8482017f20636f6e74656e74732c737472696e67206e616d652c737472696e6720766572600e8201527f73696f6e2c75696e7432353620636861696e49642c6164647265737320766572602e8201527f696679696e67436f6e74726163742c627974657333322073616c742900000000604e8201528385606a8301375f9301606a01928352509094935050505056fea2646970667358221220c83aac25bc084c23022fb7306c3bb039586e9a521b564a94a4f67261b36ee64564736f6c63430008210033","linkReferences":{}},"methodIdentifiers":{"deployDeterministic(uint256,bytes,bytes32)":"ab711ed9","eip712Domain()":"84b0196e","entryPoint()":"b0d691fe","execute(address,uint256,bytes)":"b61d27f6","initialize(address)":"c4d66de8","isValidSignature(bytes32,bytes)":"1626ba7e","onERC1155BatchReceived(address,address,uint256[],uint256[],bytes)":"bc197c81","onERC1155Received(address,address,uint256,uint256,bytes)":"f23a6e61","onERC721Received(address,address,uint256,bytes)":"150b7a02","supportsInterface(bytes4)":"01ffc9a7","validateUserOp((address,uint256,bytes,bytes,bytes32,uint256,bytes32,bytes,bytes),bytes32,uint256)":"19822f7c"},"id":101}