{"abi":[{"type":"constructor","inputs":[],"stateMutability":"nonpayable"},{"type":"fallback","stateMutability":"payable"},{"type":"receive","stateMutability":"payable"},{"type":"function","name":"deployDeterministic","inputs":[{"name":"value","type":"uint256","internalType":"uint256"},{"name":"creationCode","type":"bytes","internalType":"bytes"},{"name":"salt","type":"bytes32","internalType":"bytes32"}],"outputs":[{"name":"deployed","type":"address","internalType":"address"}],"stateMutability":"payable"},{"type":"function","name":"eip712Domain","inputs":[],"outputs":[{"name":"fields","type":"bytes1","internalType":"bytes1"},{"name":"name","type":"string","internalType":"string"},{"name":"version","type":"string","internalType":"string"},{"name":"chainId","type":"uint256","internalType":"uint256"},{"name":"verifyingContract","type":"address","internalType":"address"},{"name":"salt","type":"bytes32","internalType":"bytes32"},{"name":"extensions","type":"uint256[]","internalType":"uint256[]"}],"stateMutability":"view"},{"type":"function","name":"entryPoint","inputs":[],"outputs":[{"name":"","type":"address","internalType":"address"}],"stateMutability":"view"},{"type":"function","name":"execute","inputs":[{"name":"target","type":"address","internalType":"address"},{"name":"value","type":"uint256","internalType":"uint256"},{"name":"data","type":"bytes","internalType":"bytes"}],"outputs":[],"stateMutability":"payable"},{"type":"function","name":"initialize","inputs":[{"name":"entryPoint_","type":"address","internalType":"address"}],"outputs":[],"stateMutability":"nonpayable"},{"type":"function","name":"isValidSignature","inputs":[{"name":"hash","type":"bytes32","internalType":"bytes32"},{"name":"signature","type":"bytes","internalType":"bytes"}],"outputs":[{"name":"result","type":"bytes4","internalType":"bytes4"}],"stateMutability":"view"},{"type":"function","name":"onERC1155BatchReceived","inputs":[{"name":"","type":"address","internalType":"address"},{"name":"","type":"address","internalType":"address"},{"name":"","type":"uint256[]","internalType":"uint256[]"},{"name":"","type":"uint256[]","internalType":"uint256[]"},{"name":"","type":"bytes","internalType":"bytes"}],"outputs":[{"name":"","type":"bytes4","internalType":"bytes4"}],"stateMutability":"pure"},{"type":"function","name":"onERC1155Received","inputs":[{"name":"","type":"address","internalType":"address"},{"name":"","type":"address","internalType":"address"},{"name":"","type":"uint256","internalType":"uint256"},{"name":"","type":"uint256","internalType":"uint256"},{"name":"","type":"bytes","internalType":"bytes"}],"outputs":[{"name":"","type":"bytes4","internalType":"bytes4"}],"stateMutability":"pure"},{"type":"function","name":"onERC721Received","inputs":[{"name":"","type":"address","internalType":"address"},{"name":"","type":"address","internalType":"address"},{"name":"","type":"uint256","internalType":"uint256"},{"name":"","type":"bytes","internalType":"bytes"}],"outputs":[{"name":"","type":"bytes4","internalType":"bytes4"}],"stateMutability":"pure"},{"type":"function","name":"supportsInterface","inputs":[{"name":"interfaceId","type":"bytes4","internalType":"bytes4"}],"outputs":[{"name":"","type":"bool","internalType":"bool"}],"stateMutability":"view"},{"type":"function","name":"validateUserOp","inputs":[{"name":"userOp","type":"tuple","internalType":"struct PackedUserOperation","components":[{"name":"sender","type":"address","internalType":"address"},{"name":"nonce","type":"uint256","internalType":"uint256"},{"name":"initCode","type":"bytes","internalType":"bytes"},{"name":"callData","type":"bytes","internalType":"bytes"},{"name":"accountGasLimits","type":"bytes32","internalType":"bytes32"},{"name":"preVerificationGas","type":"uint256","internalType":"uint256"},{"name":"gasFees","type":"bytes32","internalType":"bytes32"},{"name":"paymasterAndData","type":"bytes","internalType":"bytes"},{"name":"signature","type":"bytes","internalType":"bytes"}]},{"name":"userOpHash","type":"bytes32","internalType":"bytes32"},{"name":"missingAccountFunds","type":"uint256","internalType":"uint256"}],"outputs":[{"name":"validationData","type":"uint256","internalType":"uint256"}],"stateMutability":"nonpayable"},{"type":"function","name":"version","inputs":[],"outputs":[{"name":"","type":"string","internalType":"string"}],"stateMutability":"pure"},{"type":"event","name":"ContractDeployed","inputs":[{"name":"deployed","type":"address","indexed":true,"internalType":"address"}],"anonymous":false},{"type":"event","name":"EIP712DomainChanged","inputs":[],"anonymous":false},{"type":"event","name":"EntryPointSet","inputs":[{"name":"entryPoint","type":"address","indexed":true,"internalType":"address"}],"anonymous":false},{"type":"event","name":"Initialized","inputs":[{"name":"version","type":"uint64","indexed":false,"internalType":"uint64"}],"anonymous":false},{"type":"error","name":"EmptyBytecode","inputs":[]},{"type":"error","name":"InvalidInitialization","inputs":[]},{"type":"error","name":"InvalidShortString","inputs":[]},{"type":"error","name":"NotInitializing","inputs":[]},{"type":"error","name":"StringTooLong","inputs":[{"name":"str","type":"string","internalType":"string"}]},{"type":"error","name":"Unauthorized","inputs":[]}],"bytecode":{"object":"0x610160604052348015610010575f5ffd5b50604080518082018252601381527f54536d617274204163636f756e74203737303200000000000000000000000000602080830191909152825180840190935260018352603160f81b9083015290610068825f610119565b61012052610077816001610119565b61014052815160208084019190912060e052815190820120610100524660a05261010360e05161010051604080517f8b73c3c69bb8fe3d512ecc4cf759cc79239f7b179b0ffacaa9a75d522b39400f60208201529081019290925260608201524660808201523060a08201525f9060c00160405160208183030381529060405280519060200120905090565b60805250503060c05261011461014b565b61040f565b5f6020835110156101345761012d836101e8565b9050610145565b8161013f84826102f9565b5060ff90505b92915050565b5f61015461022e565b805490915068010000000000000000900460ff16156101865760405163f92ee8a960e01b815260040160405180910390fd5b80546001600160401b03908116146101e55780546001600160401b0319166001600160401b0390811782556040519081527fc7f505b2f371ae2175ee4913f4499e1f2633a7b5936321eed1cdaeb6115181d29060200160405180910390a15b50565b5f5f829050601f8151111561021b578260405163305a27a960e01b815260040161021291906103b7565b60405180910390fd5b8051610226826103ec565b179392505050565b5f807ff0c57e16840df040f15088dc2f81fe391c3923bec73e23a9662efc9c229c6a00610145565b634e487b7160e01b5f52604160045260245ffd5b600181811c9082168061027e57607f821691505b60208210810361029c57634e487b7160e01b5f52602260045260245ffd5b50919050565b601f8211156102f457828211156102f457805f5260205f20601f840160051c60208510156102cd57505f5b90810190601f840160051c035f5b818110156102f0575f838201556001016102db565b5050505b505050565b81516001600160401b0381111561031257610312610256565b61032681610320845461026a565b846102a2565b6020601f821160018114610358575f83156103415750848201515b5f19600385901b1c1916600184901b1784556103b0565b5f84815260208120601f198516915b828110156103875787850151825560209485019460019092019101610367565b50848210156103a457868401515f19600387901b60f8161c191681555b505060018360011b0184555b5050505050565b602081525f82518060208401528060208501604085015e5f604082850101526040601f19601f83011684010191505092915050565b8051602080830151919081101561029c575f1960209190910360031b1b16919050565b60805160a05160c05160e0516101005161012051610140516117626104605f395f6108dd01525f6108ac01525f610b9d01525f610b7501525f610ad001525f610afa01525f610b2401526117625ff3fe6080604052600436106100a3575f3560e01c8063ab711ed911610060578063ab711ed9146101c3578063b0d691fe146101ee578063b61d27f614610202578063bc197c8114610215578063c4d66de814610243578063f23a6e611461026257005b806301ffc9a7146100a5578063150b7a02146100d95780631626ba7e1461011d57806319822f7c1461013c57806354fd4d501461016957806384b0196e1461019c575b005b3480156100b0575f5ffd5b506100c46100bf36600461107c565b61028e565b60405190151581526020015b60405180910390f35b3480156100e4575f5ffd5b506101046100f3366004611102565b630a85bd0160e11b95945050505050565b6040516001600160e01b031990911681526020016100d0565b348015610128575f5ffd5b5061010461013736600461116b565b610330565b348015610147575f5ffd5b5061015b6101563660046111b2565b6103b0565b6040519081526020016100d0565b348015610174575f5ffd5b5060408051808201825260058152640302e332e360dc1b602082015290516100d0919061122e565b3480156101a7575f5ffd5b506101b0610425565b6040516100d09796959493929190611240565b6101d66101d13660046112d6565b610467565b6040516001600160a01b0390911681526020016100d0565b3480156101f9575f5ffd5b506101d6610526565b6100a3610210366004611324565b610554565b348015610220575f5ffd5b5061010461022f3660046113b9565b63bc197c8160e01b98975050505050505050565b34801561024e575f5ffd5b506100a361025d366004611475565b6105ac565b34801561026d575f5ffd5b5061010461027c36600461148e565b63f23a6e6160e01b9695505050505050565b5f6001600160e01b031982166306608bdf60e21b14806102be57506001600160e01b03198216630b135d3f60e11b145b806102d957506001600160e01b03198216637739000160e01b145b806102f457506001600160e01b03198216630a85bd0160e11b145b8061030f57506001600160e01b03198216630271189760e51b145b8061032a57506001600160e01b031982166301ffc9a760e01b145b92915050565b5f61033c84848461071e565b8061034d575061034d84848461080a565b61039d577f77397739773977397739773977397739773977397739773977397739773977398414801561037e575081155b610390576001600160e01b03196103a6565b637739000160e01b6103a6565b630b135d3f60e11b5b90505b9392505050565b5f6103b9610526565b6001600160a01b0316336001600160a01b0316146103e9576040516282b42960e81b815260040160405180910390fd5b81156103f9575f5f5f5f85335af1505b6104108361040b610100870187611500565b61082b565b61041c575060016103a9565b505f9392505050565b5f6060805f5f5f60606104366108a5565b61043e6108d6565b604080515f80825260208201909252600f60f81b9b939a50919850469750309650945092509050565b5f610470610526565b6001600160a01b0316336001600160a01b0316141580156104915750333014155b156104ae576040516282b42960e81b815260040160405180910390fd5b5f8390036104cf576040516321744a5960e01b815260040160405180910390fd5b6040518385823782848288f59150816104ea573d5f823e3d81fd5b506040516001600160a01b038216907f8ffcdc15a283d706d38281f500270d8b5a656918f555de0913d7455e3e6bc1bf905f90a2949350505050565b7f38a124a88e3a590426742b6544792c2b2bc21792f86c1fa1375b57726d827a00546001600160a01b031690565b61055c610526565b6001600160a01b0316336001600160a01b03161415801561057d5750333014155b1561059a576040516282b42960e81b815260040160405180910390fd5b6105a684848484610903565b50505050565b5f6105b561091f565b805490915060ff600160401b82041615906001600160401b03165f811580156105db5750825b90505f826001600160401b031660011480156105f65750303b155b905081158015610604575080155b156106225760405163f92ee8a960e01b815260040160405180910390fd5b845467ffffffffffffffff19166001178555831561064c57845460ff60401b1916600160401b1785555b33301461066b576040516282b42960e81b815260040160405180910390fd5b7f38a124a88e3a590426742b6544792c2b2bc21792f86c1fa1375b57726d827a0080546001600160a01b0319166001600160a01b0388169081179091556040517f41e2b4fb9d855f284604e7592c9eeb72789d1f68bcc53c34f036de5dbb59dcd8905f90a2831561071657845460ff60401b19168555604051600181527fc7f505b2f371ae2175ee4913f4499e1f2633a7b5936321eed1cdaeb6115181d29060200160405180910390a15b505050505050565b5f365f5f5f365f61072f8989610947565b9550955095509550955095505f5f5f5f5f610748610425565b509550955095509550955050610767888a610a4090919063ffffffff16565b8f14801561077457508515155b80156107f757506107f76107f06107e989898c8a805190602001208a805190602001208a8a8a6040516020016107d5959493929190948552602085019390935260408401919091526001600160a01b03166060830152608082015260a00190565b604051602081830303815290604052610a5f565b8b90610a40565b8c8c61082b565b9f9e505050505050505050505050505050565b5f6103a661082861081a86610a91565b610822610ac4565b90610a40565b84845b5f5f5f61086d8686868080601f0160208091040260200160405190810160405280939291908181526020018383808284375f92019190915250610bed92505050565b509092509050306001600160a01b03831614801561089b57505f81600381111561089957610899611542565b145b9695505050505050565b60606108d17f00000000000000000000000000000000000000000000000000000000000000005f610c36565b905090565b60606108d17f00000000000000000000000000000000000000000000000000000000000000006001610c36565b604051818382375f38838387895af180610716573d5f833e3d82fd5b5f807ff0c57e16840df040f15088dc2f81fe391c3923bec73e23a9662efc9c229c6a0061032a565b365f8080838186604281101561096f57505f9550859450849350839250829150819050610a36565b60011981015f6109818a83818e611556565b61098a9161157d565b60f01c9050604281018310156109b557505f9750879650869550859450849350839250610a36915050565b5f81830390505f6020820390505f6020820390508d8d5f9083926109db93929190611556565b9b509b508d8d829084926109f193929190611556565b6109fa916115b5565b99508d8d83908592610a0e93929190611556565b610a17916115b5565b98508d8d84908792610a2b93929190611556565b975097505050505050505b9295509295509295565b60405161190160f01b8152600281019290925260228201526042902090565b5f365f365f610a6e8989610ce0565b9350935093509350610a84848484848b8b610e57565b9998505050505050505050565b7f983e65e5148e570cd828ead231ee759a8d7958721a768f93bc4483ba005c32de5f90815260208290526040812061032a565b5f306001600160a01b037f000000000000000000000000000000000000000000000000000000000000000016148015610b1c57507f000000000000000000000000000000000000000000000000000000000000000046145b15610b4657507f000000000000000000000000000000000000000000000000000000000000000090565b6108d1604080517f8b73c3c69bb8fe3d512ecc4cf759cc79239f7b179b0ffacaa9a75d522b39400f60208201527f0000000000000000000000000000000000000000000000000000000000000000918101919091527f000000000000000000000000000000000000000000000000000000000000000060608201524660808201523060a08201525f9060c00160405160208183030381529060405280519060200120905090565b5f5f5f8351604103610c24576020840151604085015160608601515f1a610c1688828585610ea6565b955095509550505050610c2f565b505081515f91506002905b9250925092565b606060ff8314610c5057610c4983610f6e565b905061032a565b818054610c5c906115d2565b80601f0160208091040260200160405190810160405280929190818152602001828054610c88906115d2565b8015610cd35780601f10610caa57610100808354040283529160200191610cd3565b820191905f5260205f20905b815481529060010190602001808311610cb657829003601f168201915b5050505050905092915050565b365f818185858015610e3f57602960f81b8282610cfe60018261161e565b818110610d0d57610d0d611631565b9050013560f81c60f81b6001600160f81b03191603610dae575f5b81811015610da8575f838383818110610d4357610d43611631565b909101356001600160f81b031916915050601b60fb1b8101610d8b57815f03610d6c5750610da8565b610d78825f8587611556565b8b8b975097509750975050505050610e4e565b610d9481610fab565b15610d9f5750610da8565b50600101610d28565b50610e3f565b805b8015610e3d575f8383610dc460018561161e565b818110610dd357610dd3611631565b909101356001600160f81b03191691505060d760f81b8101610e1857610dfb83838187611556565b610e07845f8789611556565b975097509750975050505050610e4e565b610e2181610fab565b15610e2c5750610e3d565b50610e3681611645565b9050610db0565b505b5f805f80955095509550955050505b92959194509250565b5f8515610e9957610e6a8787878761101d565b8383604051602001610e7e9392919061165a565b60405160208183030381529060405280519060200120610e9b565b5f5b979650505050505050565b5f80807f7fffffffffffffffffffffffffffffff5d576e7357a4501ddfe92f46681b20a0841115610edf57505f91506003905082610f64565b604080515f808252602082018084528a905260ff891692820192909252606081018790526080810186905260019060a0016020604051602081039080840390855afa158015610f30573d5f5f3e3d5ffd5b5050604051601f1901519150506001600160a01b038116610f5b57505f925060019150829050610f64565b92505f91508190505b9450945094915050565b60605f610f7a83611055565b6040805160208082528183019092529192505f91906020820181803683375050509182525060208101929092525090565b5f6001600160f81b031982161580610fd057506001600160f81b03198216600160fd1b145b80610fe857506001600160f81b03198216600b60fa1b145b8061100057506001600160f81b03198216600560fb1b145b8061032a57506001600160f81b03198216602960f81b1492915050565b5f848484846040516020016110359493929190611681565b604051602081830303815290604052805190602001209050949350505050565b5f60ff8216601f81111561032a57604051632cd44ac360e21b815260040160405180910390fd5b5f6020828403121561108c575f5ffd5b81356001600160e01b0319811681146103a9575f5ffd5b80356001600160a01b03811681146110b9575f5ffd5b919050565b5f5f83601f8401126110ce575f5ffd5b5081356001600160401b038111156110e4575f5ffd5b6020830191508360208285010111156110fb575f5ffd5b9250929050565b5f5f5f5f5f60808688031215611116575f5ffd5b61111f866110a3565b945061112d602087016110a3565b93506040860135925060608601356001600160401b0381111561114e575f5ffd5b61115a888289016110be565b969995985093965092949392505050565b5f5f5f6040848603121561117d575f5ffd5b8335925060208401356001600160401b03811115611199575f5ffd5b6111a5868287016110be565b9497909650939450505050565b5f5f5f606084860312156111c4575f5ffd5b83356001600160401b038111156111d9575f5ffd5b840161012081870312156111eb575f5ffd5b95602085013595506040909401359392505050565b5f81518084528060208401602086015e5f602082860101526020601f19601f83011685010191505092915050565b602081525f6103a96020830184611200565b60ff60f81b8816815260e060208201525f61125e60e0830189611200565b82810360408401526112708189611200565b606084018890526001600160a01b038716608085015260a0840186905283810360c0850152845180825260208087019350909101905f5b818110156112c55783518352602093840193909201916001016112a7565b50909b9a5050505050505050505050565b5f5f5f5f606085870312156112e9575f5ffd5b8435935060208501356001600160401b03811115611305575f5ffd5b611311878288016110be565b9598909750949560400135949350505050565b5f5f5f5f60608587031215611337575f5ffd5b611340856110a3565b93506020850135925060408501356001600160401b03811115611361575f5ffd5b61136d878288016110be565b95989497509550505050565b5f5f83601f840112611389575f5ffd5b5081356001600160401b0381111561139f575f5ffd5b6020830191508360208260051b85010111156110fb575f5ffd5b5f5f5f5f5f5f5f5f60a0898b0312156113d0575f5ffd5b6113d9896110a3565b97506113e760208a016110a3565b965060408901356001600160401b03811115611401575f5ffd5b61140d8b828c01611379565b90975095505060608901356001600160401b0381111561142b575f5ffd5b6114378b828c01611379565b90955093505060808901356001600160401b03811115611455575f5ffd5b6114618b828c016110be565b999c989b5096995094979396929594505050565b5f60208284031215611485575f5ffd5b6103a9826110a3565b5f5f5f5f5f5f60a087890312156114a3575f5ffd5b6114ac876110a3565b95506114ba602088016110a3565b9450604087013593506060870135925060808701356001600160401b038111156114e2575f5ffd5b6114ee89828a016110be565b979a9699509497509295939492505050565b5f5f8335601e19843603018112611515575f5ffd5b8301803591506001600160401b0382111561152e575f5ffd5b6020019150368190038213156110fb575f5ffd5b634e487b7160e01b5f52602160045260245ffd5b5f5f85851115611564575f5ffd5b83861115611570575f5ffd5b5050820193919092039150565b80356001600160f01b031981169060028410156115ae576001600160f01b0319600285900360031b81901b82161691505b5092915050565b8035602083101561032a575f19602084900360031b1b1692915050565b600181811c908216806115e657607f821691505b60208210810361160457634e487b7160e01b5f52602260045260245ffd5b50919050565b634e487b7160e01b5f52601160045260245ffd5b8181038181111561032a5761032a61160a565b634e487b7160e01b5f52603260045260245ffd5b5f816116535761165361160a565b505f190190565b8381528260208201525f82518060208501604085015e5f9201604001918252509392505050565b6d0a8f2e0cac888c2e8c2a6d2cedc560931b81528385600e8301375f8482017f20636f6e74656e74732c737472696e67206e616d652c737472696e6720766572600e8201527f73696f6e2c75696e7432353620636861696e49642c6164647265737320766572602e8201527f696679696e67436f6e74726163742c627974657333322073616c742900000000604e8201528385606a8301375f9301606a01928352509094935050505056fea2646970667358221220d07da269307ffc08204a9fda3ee79be31a5fa72afb432cab098b4684137854ed64736f6c63430008220033","linkReferences":{}},"methodIdentifiers":{"deployDeterministic(uint256,bytes,bytes32)":"ab711ed9","eip712Domain()":"84b0196e","entryPoint()":"b0d691fe","execute(address,uint256,bytes)":"b61d27f6","initialize(address)":"c4d66de8","isValidSignature(bytes32,bytes)":"1626ba7e","onERC1155BatchReceived(address,address,uint256[],uint256[],bytes)":"bc197c81","onERC1155Received(address,address,uint256,uint256,bytes)":"f23a6e61","onERC721Received(address,address,uint256,bytes)":"150b7a02","supportsInterface(bytes4)":"01ffc9a7","validateUserOp((address,uint256,bytes,bytes,bytes32,uint256,bytes32,bytes,bytes),bytes32,uint256)":"19822f7c","version()":"54fd4d50"},"id":101}