{"abi":[{"type":"constructor","inputs":[{"name":"entryPoint_","type":"address","internalType":"address"}],"stateMutability":"nonpayable"},{"type":"fallback","stateMutability":"payable"},{"type":"receive","stateMutability":"payable"},{"type":"function","name":"deployDeterministic","inputs":[{"name":"value","type":"uint256","internalType":"uint256"},{"name":"creationCode","type":"bytes","internalType":"bytes"},{"name":"salt","type":"bytes32","internalType":"bytes32"}],"outputs":[{"name":"deployed","type":"address","internalType":"address"}],"stateMutability":"payable"},{"type":"function","name":"eip712Domain","inputs":[],"outputs":[{"name":"fields","type":"bytes1","internalType":"bytes1"},{"name":"name","type":"string","internalType":"string"},{"name":"version","type":"string","internalType":"string"},{"name":"chainId","type":"uint256","internalType":"uint256"},{"name":"verifyingContract","type":"address","internalType":"address"},{"name":"salt","type":"bytes32","internalType":"bytes32"},{"name":"extensions","type":"uint256[]","internalType":"uint256[]"}],"stateMutability":"view"},{"type":"function","name":"entryPoint","inputs":[],"outputs":[{"name":"","type":"address","internalType":"address"}],"stateMutability":"view"},{"type":"function","name":"execute","inputs":[{"name":"target","type":"address","internalType":"address"},{"name":"value","type":"uint256","internalType":"uint256"},{"name":"data","type":"bytes","internalType":"bytes"}],"outputs":[],"stateMutability":"payable"},{"type":"function","name":"isValidSignature","inputs":[{"name":"hash","type":"bytes32","internalType":"bytes32"},{"name":"signature","type":"bytes","internalType":"bytes"}],"outputs":[{"name":"result","type":"bytes4","internalType":"bytes4"}],"stateMutability":"view"},{"type":"function","name":"onERC1155BatchReceived","inputs":[{"name":"","type":"address","internalType":"address"},{"name":"","type":"address","internalType":"address"},{"name":"","type":"uint256[]","internalType":"uint256[]"},{"name":"","type":"uint256[]","internalType":"uint256[]"},{"name":"","type":"bytes","internalType":"bytes"}],"outputs":[{"name":"","type":"bytes4","internalType":"bytes4"}],"stateMutability":"pure"},{"type":"function","name":"onERC1155Received","inputs":[{"name":"","type":"address","internalType":"address"},{"name":"","type":"address","internalType":"address"},{"name":"","type":"uint256","internalType":"uint256"},{"name":"","type":"uint256","internalType":"uint256"},{"name":"","type":"bytes","internalType":"bytes"}],"outputs":[{"name":"","type":"bytes4","internalType":"bytes4"}],"stateMutability":"pure"},{"type":"function","name":"onERC721Received","inputs":[{"name":"","type":"address","internalType":"address"},{"name":"","type":"address","internalType":"address"},{"name":"","type":"uint256","internalType":"uint256"},{"name":"","type":"bytes","internalType":"bytes"}],"outputs":[{"name":"","type":"bytes4","internalType":"bytes4"}],"stateMutability":"pure"},{"type":"function","name":"supportsInterface","inputs":[{"name":"interfaceId","type":"bytes4","internalType":"bytes4"}],"outputs":[{"name":"","type":"bool","internalType":"bool"}],"stateMutability":"view"},{"type":"function","name":"validateUserOp","inputs":[{"name":"userOp","type":"tuple","internalType":"struct PackedUserOperation","components":[{"name":"sender","type":"address","internalType":"address"},{"name":"nonce","type":"uint256","internalType":"uint256"},{"name":"initCode","type":"bytes","internalType":"bytes"},{"name":"callData","type":"bytes","internalType":"bytes"},{"name":"accountGasLimits","type":"bytes32","internalType":"bytes32"},{"name":"preVerificationGas","type":"uint256","internalType":"uint256"},{"name":"gasFees","type":"bytes32","internalType":"bytes32"},{"name":"paymasterAndData","type":"bytes","internalType":"bytes"},{"name":"signature","type":"bytes","internalType":"bytes"}]},{"name":"userOpHash","type":"bytes32","internalType":"bytes32"},{"name":"missingAccountFunds","type":"uint256","internalType":"uint256"}],"outputs":[{"name":"validationData","type":"uint256","internalType":"uint256"}],"stateMutability":"nonpayable"},{"type":"function","name":"version","inputs":[],"outputs":[{"name":"","type":"string","internalType":"string"}],"stateMutability":"pure"},{"type":"event","name":"ContractDeployed","inputs":[{"name":"deployed","type":"address","indexed":true,"internalType":"address"}],"anonymous":false},{"type":"event","name":"EIP712DomainChanged","inputs":[],"anonymous":false},{"type":"error","name":"EmptyBytecode","inputs":[]},{"type":"error","name":"EntryPointAddressZero","inputs":[]},{"type":"error","name":"InvalidShortString","inputs":[]},{"type":"error","name":"StringTooLong","inputs":[{"name":"str","type":"string","internalType":"string"}]},{"type":"error","name":"Unauthorized","inputs":[{"name":"caller","type":"address","internalType":"address"}]}],"bytecode":{"object":"0x610180604052348015610010575f5ffd5b506040516119fb3803806119fb83398101604081905261002f916101db565b604080518082018252601381527f54536d617274204163636f756e74203737303200000000000000000000000000602080830191909152825180840190935260018352603160f81b9083015290610086825f610163565b61012052610095816001610163565b61014052815160208084019190912060e052815190820120610100524660a05261012160e05161010051604080517f8b73c3c69bb8fe3d512ecc4cf759cc79239f7b179b0ffacaa9a75d522b39400f60208201529081019290925260608201524660808201523060a08201525f9060c00160405160208183030381529060405280519060200120905090565b60805250503060c0526001600160a01b0381166101515760405163e5c80a1b60e01b815260040160405180910390fd5b6001600160a01b0316610160526103c1565b5f60208351101561017e5761017783610195565b905061018f565b8161018984826102ab565b5060ff90505b92915050565b5f5f829050601f815111156101c8578260405163305a27a960e01b81526004016101bf9190610369565b60405180910390fd5b80516101d38261039e565b179392505050565b5f602082840312156101eb575f5ffd5b81516001600160a01b0381168114610201575f5ffd5b9392505050565b634e487b7160e01b5f52604160045260245ffd5b600181811c9082168061023057607f821691505b60208210810361024e57634e487b7160e01b5f52602260045260245ffd5b50919050565b601f8211156102a657828211156102a657805f5260205f20601f840160051c602085101561027f57505f5b90810190601f840160051c035f5b818110156102a2575f8382015560010161028d565b5050505b505050565b81516001600160401b038111156102c4576102c4610208565b6102d8816102d2845461021c565b84610254565b6020601f82116001811461030a575f83156102f35750848201515b5f19600385901b1c1916600184901b178455610362565b5f84815260208120601f198516915b828110156103395787850151825560209485019460019092019101610319565b508482101561035657868401515f19600387901b60f8161c191681555b505060018360011b0184555b5050505050565b602081525f82518060208401528060208501604085015e5f604082850101526040601f19601f83011684010191505092915050565b8051602080830151919081101561024e575f1960209190910360031b1b16919050565b60805160a05160c05160e051610100516101205161014051610160516115ca6104315f395f81816101f10152818161039501528181610470015261054a01525f61077201525f61074101525f610a1201525f6109ea01525f61094501525f61096f01525f61099901526115ca5ff3fe608060405260043610610098575f3560e01c806384b0196e1161006057806384b0196e14610191578063ab711ed9146101b8578063b0d691fe146101e3578063b61d27f614610215578063bc197c8114610228578063f23a6e611461025657005b806301ffc9a71461009a578063150b7a02146100ce5780631626ba7e1461011257806319822f7c1461013157806354fd4d501461015e575b005b3480156100a5575f5ffd5b506100b96100b4366004610ef1565b610282565b60405190151581526020015b60405180910390f35b3480156100d9575f5ffd5b506100f96100e8366004610f78565b630a85bd0160e11b95945050505050565b6040516001600160e01b031990911681526020016100c5565b34801561011d575f5ffd5b506100f961012c366004610fe2565b610309565b34801561013c575f5ffd5b5061015061014b36600461102a565b610389565b6040519081526020016100c5565b348015610169575f5ffd5b5060408051808201825260058152640312e302e360dc1b602082015290516100c591906110a7565b34801561019c575f5ffd5b506101a5610422565b6040516100c597969594939291906110b9565b6101cb6101c636600461114f565b610464565b6040516001600160a01b0390911681526020016100c5565b3480156101ee575f5ffd5b507f00000000000000000000000000000000000000000000000000000000000000006101cb565b61009861022336600461119e565b61053f565b348015610233575f5ffd5b506100f9610242366004611235565b63bc197c8160e01b98975050505050505050565b348015610261575f5ffd5b506100f96102703660046112f4565b63f23a6e6160e01b9695505050505050565b5f6001600160e01b031982166306608bdf60e21b14806102b257506001600160e01b03198216630b135d3f60e11b145b806102cd57506001600160e01b03198216630a85bd0160e11b145b806102e857506001600160e01b03198216630271189760e51b145b8061030357506001600160e01b031982166301ffc9a760e01b145b92915050565b5f6103158484846105b3565b80610326575061032684848461069f565b610376577f773977397739773977397739773977397739773977397739773977397739773984148015610357575081155b610369576001600160e01b031961037f565b637739000160e01b61037f565b630b135d3f60e11b5b90505b9392505050565b5f336001600160a01b037f00000000000000000000000000000000000000000000000000000000000000001681146103e55760405163472511eb60e11b81526001600160a01b0390911660048201526024015b60405180910390fd5b506103fd836103f8610100870187611367565b6106c0565b61040957506001610382565b8115610419575f5f5f5f85335af1505b505f9392505050565b5f6060805f5f5f606061043361073a565b61043b61076b565b604080515f80825260208201909252600f60f81b9b939a50919850469750309650945092509050565b5f336001600160a01b037f000000000000000000000000000000000000000000000000000000000000000016148061049b57503330145b33906104c65760405163472511eb60e11b81526001600160a01b0390911660048201526024016103dc565b505f8390036104e8576040516321744a5960e01b815260040160405180910390fd5b6040518385823782848288f5915081610503573d5f823e3d81fd5b506040516001600160a01b038216907f8ffcdc15a283d706d38281f500270d8b5a656918f555de0913d7455e3e6bc1bf905f90a2949350505050565b336001600160a01b037f000000000000000000000000000000000000000000000000000000000000000016148061057557503330145b33906105a05760405163472511eb60e11b81526001600160a01b0390911660048201526024016103dc565b506105ad84848484610798565b50505050565b5f365f5f5f365f6105c489896107bc565b9550955095509550955095505f5f5f5f5f6105dd610422565b5095509550955095509550506105fc888a6108b590919063ffffffff16565b8f14801561060957508515155b801561068c575061068c61068561067e89898c8a805190602001208a805190602001208a8a8a60405160200161066a959493929190948552602085019390935260408401919091526001600160a01b03166060830152608082015260a00190565b6040516020818303038152906040526108d4565b8b906108b5565b8c8c6106c0565b9f9e505050505050505050505050505050565b5f61037f6106bd6106af86610906565b6106b7610939565b906108b5565b84845b5f5f5f6107028686868080601f0160208091040260200160405190810160405280939291908181526020018383808284375f92019190915250610a6292505050565b509092509050306001600160a01b03831614801561073057505f81600381111561072e5761072e6113aa565b145b9695505050505050565b60606107667f00000000000000000000000000000000000000000000000000000000000000005f610aab565b905090565b60606107667f00000000000000000000000000000000000000000000000000000000000000006001610aab565b604051818382375f38838387895af1806107b4573d5f833e3d82fd5b505050505050565b365f808083818660428110156107e457505f95508594508493508392508291508190506108ab565b60011981015f6107f68a83818e6113be565b6107ff916113e5565b60f01c90506042810183101561082a57505f97508796508695508594508493508392506108ab915050565b5f81830390505f6020820390505f6020820390508d8d5f908392610850939291906113be565b9b509b508d8d82908492610866939291906113be565b61086f9161141d565b99508d8d83908592610883939291906113be565b61088c9161141d565b98508d8d849087926108a0939291906113be565b975097505050505050505b9295509295509295565b60405161190160f01b8152600281019290925260228201526042902090565b5f365f365f6108e38989610b55565b93509350935093506108f9848484848b8b610ccc565b9998505050505050505050565b7f983e65e5148e570cd828ead231ee759a8d7958721a768f93bc4483ba005c32de5f908152602082905260408120610303565b5f306001600160a01b037f00000000000000000000000000000000000000000000000000000000000000001614801561099157507f000000000000000000000000000000000000000000000000000000000000000046145b156109bb57507f000000000000000000000000000000000000000000000000000000000000000090565b610766604080517f8b73c3c69bb8fe3d512ecc4cf759cc79239f7b179b0ffacaa9a75d522b39400f60208201527f0000000000000000000000000000000000000000000000000000000000000000918101919091527f000000000000000000000000000000000000000000000000000000000000000060608201524660808201523060a08201525f9060c00160405160208183030381529060405280519060200120905090565b5f5f5f8351604103610a99576020840151604085015160608601515f1a610a8b88828585610d1b565b955095509550505050610aa4565b505081515f91506002905b9250925092565b606060ff8314610ac557610abe83610de3565b9050610303565b818054610ad19061143a565b80601f0160208091040260200160405190810160405280929190818152602001828054610afd9061143a565b8015610b485780601f10610b1f57610100808354040283529160200191610b48565b820191905f5260205f20905b815481529060010190602001808311610b2b57829003601f168201915b5050505050905092915050565b365f818185858015610cb457602960f81b8282610b73600182611486565b818110610b8257610b82611499565b9050013560f81c60f81b6001600160f81b03191603610c23575f5b81811015610c1d575f838383818110610bb857610bb8611499565b909101356001600160f81b031916915050601b60fb1b8101610c0057815f03610be15750610c1d565b610bed825f85876113be565b8b8b975097509750975050505050610cc3565b610c0981610e20565b15610c145750610c1d565b50600101610b9d565b50610cb4565b805b8015610cb2575f8383610c39600185611486565b818110610c4857610c48611499565b909101356001600160f81b03191691505060d760f81b8101610c8d57610c70838381876113be565b610c7c845f87896113be565b975097509750975050505050610cc3565b610c9681610e20565b15610ca15750610cb2565b50610cab816114ad565b9050610c25565b505b5f805f80955095509550955050505b92959194509250565b5f8515610d0e57610cdf87878787610e92565b8383604051602001610cf3939291906114c2565b60405160208183030381529060405280519060200120610d10565b5f5b979650505050505050565b5f80807f7fffffffffffffffffffffffffffffff5d576e7357a4501ddfe92f46681b20a0841115610d5457505f91506003905082610dd9565b604080515f808252602082018084528a905260ff891692820192909252606081018790526080810186905260019060a0016020604051602081039080840390855afa158015610da5573d5f5f3e3d5ffd5b5050604051601f1901519150506001600160a01b038116610dd057505f925060019150829050610dd9565b92505f91508190505b9450945094915050565b60605f610def83610eca565b6040805160208082528183019092529192505f91906020820181803683375050509182525060208101929092525090565b5f6001600160f81b031982161580610e4557506001600160f81b03198216600160fd1b145b80610e5d57506001600160f81b03198216600b60fa1b145b80610e7557506001600160f81b03198216600560fb1b145b8061030357506001600160f81b03198216602960f81b1492915050565b5f84848484604051602001610eaa94939291906114e9565b604051602081830303815290604052805190602001209050949350505050565b5f60ff8216601f81111561030357604051632cd44ac360e21b815260040160405180910390fd5b5f60208284031215610f01575f5ffd5b81356001600160e01b031981168114610382575f5ffd5b80356001600160a01b0381168114610f2e575f5ffd5b919050565b5f5f83601f840112610f43575f5ffd5b50813567ffffffffffffffff811115610f5a575f5ffd5b602083019150836020828501011115610f71575f5ffd5b9250929050565b5f5f5f5f5f60808688031215610f8c575f5ffd5b610f9586610f18565b9450610fa360208701610f18565b935060408601359250606086013567ffffffffffffffff811115610fc5575f5ffd5b610fd188828901610f33565b969995985093965092949392505050565b5f5f5f60408486031215610ff4575f5ffd5b83359250602084013567ffffffffffffffff811115611011575f5ffd5b61101d86828701610f33565b9497909650939450505050565b5f5f5f6060848603121561103c575f5ffd5b833567ffffffffffffffff811115611052575f5ffd5b84016101208187031215611064575f5ffd5b95602085013595506040909401359392505050565b5f81518084528060208401602086015e5f602082860101526020601f19601f83011685010191505092915050565b602081525f6103826020830184611079565b60ff60f81b8816815260e060208201525f6110d760e0830189611079565b82810360408401526110e98189611079565b606084018890526001600160a01b038716608085015260a0840186905283810360c0850152845180825260208087019350909101905f5b8181101561113e578351835260209384019390920191600101611120565b50909b9a5050505050505050505050565b5f5f5f5f60608587031215611162575f5ffd5b84359350602085013567ffffffffffffffff81111561117f575f5ffd5b61118b87828801610f33565b9598909750949560400135949350505050565b5f5f5f5f606085870312156111b1575f5ffd5b6111ba85610f18565b935060208501359250604085013567ffffffffffffffff8111156111dc575f5ffd5b6111e887828801610f33565b95989497509550505050565b5f5f83601f840112611204575f5ffd5b50813567ffffffffffffffff81111561121b575f5ffd5b6020830191508360208260051b8501011115610f71575f5ffd5b5f5f5f5f5f5f5f5f60a0898b03121561124c575f5ffd5b61125589610f18565b975061126360208a01610f18565b9650604089013567ffffffffffffffff81111561127e575f5ffd5b61128a8b828c016111f4565b909750955050606089013567ffffffffffffffff8111156112a9575f5ffd5b6112b58b828c016111f4565b909550935050608089013567ffffffffffffffff8111156112d4575f5ffd5b6112e08b828c01610f33565b999c989b5096995094979396929594505050565b5f5f5f5f5f5f60a08789031215611309575f5ffd5b61131287610f18565b955061132060208801610f18565b94506040870135935060608701359250608087013567ffffffffffffffff811115611349575f5ffd5b61135589828a01610f33565b979a9699509497509295939492505050565b5f5f8335601e1984360301811261137c575f5ffd5b83018035915067ffffffffffffffff821115611396575f5ffd5b602001915036819003821315610f71575f5ffd5b634e487b7160e01b5f52602160045260245ffd5b5f5f858511156113cc575f5ffd5b838611156113d8575f5ffd5b5050820193919092039150565b80356001600160f01b03198116906002841015611416576001600160f01b0319600285900360031b81901b82161691505b5092915050565b80356020831015610303575f19602084900360031b1b1692915050565b600181811c9082168061144e57607f821691505b60208210810361146c57634e487b7160e01b5f52602260045260245ffd5b50919050565b634e487b7160e01b5f52601160045260245ffd5b8181038181111561030357610303611472565b634e487b7160e01b5f52603260045260245ffd5b5f816114bb576114bb611472565b505f190190565b8381528260208201525f82518060208501604085015e5f9201604001918252509392505050565b6d0a8f2e0cac888c2e8c2a6d2cedc560931b81528385600e8301375f8482017f20636f6e74656e74732c737472696e67206e616d652c737472696e6720766572600e8201527f73696f6e2c75696e7432353620636861696e49642c6164647265737320766572602e8201527f696679696e67436f6e74726163742c627974657333322073616c742900000000604e8201528385606a8301375f9301606a01928352509094935050505056fea26469706673582212208966b64362d93b98d7e01beb5179a772ca41c94f82da5662dd5ccb1932ccd68464736f6c63430008220033","linkReferences":{}},"methodIdentifiers":{"deployDeterministic(uint256,bytes,bytes32)":"ab711ed9","eip712Domain()":"84b0196e","entryPoint()":"b0d691fe","execute(address,uint256,bytes)":"b61d27f6","isValidSignature(bytes32,bytes)":"1626ba7e","onERC1155BatchReceived(address,address,uint256[],uint256[],bytes)":"bc197c81","onERC1155Received(address,address,uint256,uint256,bytes)":"f23a6e61","onERC721Received(address,address,uint256,bytes)":"150b7a02","supportsInterface(bytes4)":"01ffc9a7","validateUserOp((address,uint256,bytes,bytes,bytes32,uint256,bytes32,bytes,bytes),bytes32,uint256)":"19822f7c","version()":"54fd4d50"},"id":100}